:020000021000EC
:10F800000C9446FC0C9465FC0C9465FC0C9465FC13
:10F810000C9465FC0C9465FC0C9465FC0C9465FCE4
:10F820000C9465FC0C9465FC0C9465FC0C9465FCD4
:10F830000C9465FC0C9465FC0C9465FC0C9465FCC4
:10F840000C9465FC0C9465FC0C9465FC0C9465FCB4
:10F850000C9465FC0C9465FC0C9465FC0C9465FCA4
:10F860000C9465FC0C9465FC0C9465FC0C9465FC94
:10F870000C9465FC0C9465FC0C9465FC0C9465FC84
:10F880000C9465FC0C9465FC0C9465FC11241FBE63
:10F89000CFEFD0E4DEBFCDBF11E0A0E0B1E0E4E007
:10F8A000FFEF01E00BBF02C007900D92A230B1073D
:10F8B000D9F712E0A2E0B1E001C01D92AD30B1076E
:10F8C000E1F70E9462FD0C9480FF0C9400FC982FDD
:10F8D00080910201813039F48091C00085FFFCCF16
:10F8E0009093C6000895823031F48091C80085FF5E
:10F8F000FCCF9093CE0008951F93982F95959595E2
:10F9000095959595905D8F708A301CF0182F195A37
:10F9100002C0182F105D892F0E9467FC812F0E9462
:10F9200067FC1F910895EF92FF920F931F938091B0
:10F9300002018130F1F4EE24FF24870113C0089402
:10F94000E11CF11C011D111D81E0E81682E1F806A1
:10F950008AE7080780E0180728F0E0910401F09199
:10F96000050109958091C00087FFE9CF8091C6000D
:10F9700021C0823011F080E01DC0EE24FF248701F9
:10F9800013C00894E11CF11C011D111D81E0E81653
:10F9900082E1F8068AE7080780E0180728F0E0917E
:10F9A0000401F091050109958091C80087FFE9CF16
:10F9B0008091CE001F910F91FF90EF9008951F93BB
:10F9C0000E9493FC182F0E9467FC113614F0175503
:10F9D00003C010330CF01053812F1F9108951F9313
:10F9E0000E94DFFC182F0E94DFFC1295107F810F10
:10F9F0001F910895982F2091020112C0213039F4EF
:10FA00008091C00087FFFCCF8091C60008C02230E3
:10FA100031F48091C80087FFFCCF8091CE009150D7
:10FA2000992361F708951F93182F0E9493FC803249
:10FA300051F484E10E9467FC812F0E9467FC80E101
:10FA40000E9467FC0CC0809103018F5F80930301CB
:10FA5000853029F4E0910401F091050109951F9189
:10FA600008950E9493FC803239F484E10E9467FC7F
:10FA700080E10E9467FC0895809103018F5F80936D
:10FA80000301853029F4E0910401F0910501099505
:10FA9000089540E951E013C0289A28EE33E0FA01B6
:10FAA0003197F1F721503040D1F7289828EE33E014
:10FAB000FA013197F1F721503040D1F78150882376
:10FAC00059F70895FF920F931F93CF93DF9394B745
:10FAD00014BE809160008861809360001092600085
:10FAE00091FD05C0E0910401F0910501099581E0C7
:10FAF0008093020183E38093C4001092C5001092AA
:10FB0000C00086E08093C20088E18093C1005098D5
:10FB1000589A209A84E00E9449FDFF24F3940E94A1
:10FB200093FC803309F441C08133E1F40E9493FCDB
:10FB3000803209F0C1C184E10E9467FC81E40E9427
:10FB400067FC86E50E9467FC82E50E9467FC80E214
:10FB50000E9467FC89E40E9467FC83E50E9467FCC1
:10FB600080E527C1803439F40E9493FC8638E8F0A0
:10FB70000E9493FC1AC0813499F40E9493FC80384F
:10FB800011F482E096C1813811F481E092C182388B
:10FB900011F480E18EC1883909F08AC183E089C1FE
:10FBA000823431F484E10E94FAFC0E9431FDB7CF27
:10FBB000853411F485E0F7CF8035B9F38235A9F3A8
:10FBC000813531F40E9431FD88E080936000FFCFE1
:10FBD000853549F40E9493FC809306010E9493FCB2
:10FBE00080930701E2CF8635C9F40E9493FC8033ED
:10FBF00089F40E9493FC0E9493FC182F0E9493FCAE
:10FC0000112311F48EE155C1113011F487E951C16E
:10FC100085E04FC183E00E94FAFC4AC1843609F0B6
:10FC2000CEC00E9493FC809309020E9493FC8093B3
:10FC3000080280910C028E7F80930C020E9493FC3C
:10FC4000853429F480910C02816080930C0200E0DD
:10FC500010E008C00E9493FCF801E85FFE4F80832B
:10FC60000F5F1F4F80910802909109020817190732
:10FC700088F30E9493FC803209F01EC180910C022F
:10FC800080FF2AC08091060190910701880F991F7B
:10FC9000909307018093060100E010E015C0F80181
:10FCA000E85FFE4F809106019091070160810E94FC
:10FCB00072FF8091060190910701019690930701D0
:10FCC000809306010F5F1F4F8091080290910902F7
:10FCD0000817190720F36CC0809107018823880F4B
:10FCE000880B8F2180930B028BBF8091060190912E
:10FCF0000701880F991F9093070180930601809157
:10FD0000080280FF09C080910802909109020196C3
:10FD10009093090280930802F894F999FECF112775
:10FD2000E0910601F0910701C8E0D1E0809108025E
:10FD300090910902103091F4009157000170013048
:10FD4000D9F303E000935700E89500915700017044
:10FD50000130D9F301E100935700E895099019901B
:10FD60000091570001700130D9F301E00093570072
:10FD7000E8951395103898F01127009157000170FD
:10FD80000130D9F305E000935700E8950091570042
:10FD900001700130D9F301E100935700E8953296E4
:10FDA000029709F0C7CF103011F00296E5CF112469
:10FDB00084E10E9467FC80E10E9467FCB0CE84373A
:10FDC00009F063C00E9493FC809309020E9493FC97
:10FDD00080930802209106013091070190910C0256
:10FDE00037FF02C0926001C09D7F90930C02220FEA
:10FDF000331F30930701209306010E9493FC9091DA
:10FE00000C02853411F4916001C09E7F90930C0226
:10FE10000E9493FC803209F082CE84E10E9467FC4C
:10FE200000E010E02AC080910C0280FF07C08091A2
:10FE30000601909107010E946AFF12C0E09106013D
:10FE4000F091070181FD02C084910AC0CF01A0E0BA
:10FE5000B0E080509040AF4FBF4FABBFFC018791E7
:10FE60000E9467FC80910601909107010196909392
:10FE70000701809306010F5F1F4F80910802909148
:10FE800009020817190778F296CF853779F40E948E
:10FE900093FC803289F484E10E9467FC8EE10E9429
:10FEA00067FC87E90E9467FC85E083CF863721F4F1
:10FEB00080E00E9413FD33CE809103018F5F809319
:10FEC0000301853009F02BCEE0910401F09105018A
:10FED000099525CEF999FECF92BD81BDF89A992753
:10FEE00080B50895262FF999FECF1FBA92BD81BD26
:10FEF00020BD0FB6F894FA9AF99A0FBE01960895AC
:04FF0000F894FFCFA3
:02FF040080007B
:040000031000F800F1
:00000001FF
