:101E00008FE594E09EBF8DBF84B714BE81FFDAD00A
:101E100085E08EBD82E08BB988E18AB986E880BD15
:101E200080E189B98EE0CAD0BD9A96E020E33CEF0C
:101E300054E040E23DBD2CBD58BF08B602FEFDCFC8
:101E400088B3842788BBA8959150A1F7DD24D3944B
:101E5000A5E0EA2EF1E1FF2EA7D0813421F481E044
:101E6000BCD083E020C0823411F484E103C0853407
:101E700019F485E0B2D091C0853581F495D0082F52
:101E800010E092D090E0982F8827802B912B880F1C
:101E9000991F90938101809380017EC0863529F43B
:101EA00084E09BD080E07CD078C0843609F04EC0BE
:101EB00080D0E0918001F091810188E1E030F80765
:101EC00018F483E087BFE895C0E0D1E06DD0899336
:101ED000809182018150809382018823B9F7E0913B
:101EE0008001F091810188E1E030F80718F083E08B
:101EF00087BFE8956CD007B600FCFDCF409180010C
:101F000050918101A0E0B1E02C9130E011968C91CC
:101F1000119790E0982F8827822B932B1296FA0125
:101F20000C01D7BEE89511244E5F5F4FF1E0A0345D
:101F3000BF0751F7E0918001F0918101E7BEE8957C
:101F400007B600FCFDCFF7BEE89527C08437B9F48B
:101F500030D03DD0E0918001F09181013196F09335
:101F60008101E09380013197E4918E2F19D0809107
:101F70008201815080938201882361F70EC08537EA
:101F800039F425D08EE10CD083E90AD087E08BCFDD
:101F9000813511F488E012D01AD080E101D05CCFF5
:101FA0005D9BFECF8CB90895A8955F9BFECF8CB149
:101FB0000895FADFF9DF80938201F6CF98E191BDB1
:101FC00081BD089580E0FADFEE27FF270994ECDF5A
:101FD000803209F0F7DF84E1E3CF1F93182FE4DFAD
:0A1FE0001150E9F7F4DF1F91089596
:0400000300001E00DB
:00000001FF
